{
  "contractName": "Storage",
  "abi": [
    {
      "inputs": [
        {
          "internalType": "uint256",
          "name": "",
          "type": "uint256"
        }
      ],
      "name": "ids",
      "outputs": [
        {
          "internalType": "uint256",
          "name": "",
          "type": "uint256"
        }
      ],
      "stateMutability": "view",
      "type": "function"
    },
    {
      "inputs": [
        {
          "internalType": "uint256",
          "name": "_id",
          "type": "uint256"
        }
      ],
      "name": "add",
      "outputs": [],
      "stateMutability": "nonpayable",
      "type": "function"
    },
    {
      "inputs": [
        {
          "internalType": "uint256",
          "name": "_index",
          "type": "uint256"
        }
      ],
      "name": "get",
      "outputs": [
        {
          "internalType": "uint256",
          "name": "arrayElement",
          "type": "uint256"
        }
      ],
      "stateMutability": "view",
      "type": "function"
    },
    {
      "inputs": [],
      "name": "getAll",
      "outputs": [
        {
          "internalType": "uint256[]",
          "name": "",
          "type": "uint256[]"
        }
      ],
      "stateMutability": "view",
      "type": "function"
    },
    {
      "inputs": [],
      "name": "arrayLength",
      "outputs": [
        {
          "internalType": "uint256",
          "name": "",
          "type": "uint256"
        }
      ],
      "stateMutability": "view",
      "type": "function"
    }
  ],
  "bytecode": "0x608060405234801561001057600080fd5b506103c6806100206000396000f3fe608060405234801561001057600080fd5b50600436106100575760003560e01c80631003e2d21461005c57806353ed5143146100785780639507d39a14610096578063e554482e146100c6578063fac333ac146100e4575b600080fd5b6100766004803603810190610071919061022a565b610114565b005b610080610140565b60405161008d9190610315565b60405180910390f35b6100b060048036038101906100ab919061022a565b610198565b6040516100bd9190610346565b60405180910390f35b6100ce6101bf565b6040516100db9190610346565b60405180910390f35b6100fe60048036038101906100f9919061022a565b6101cb565b60405161010b9190610346565b60405180910390f35b600081908060018154018082558091505060019003906000526020600020016000909190919091505550565b6060600080548060200260200160405190810160405280929190818152602001828054801561018e57602002820191906000526020600020905b81548152602001906001019080831161017a575b5050505050905090565b60008082815481106101ad576101ac610361565b5b90600052602060002001549050919050565b60008080549050905090565b600081815481106101db57600080fd5b906000526020600020016000915090505481565b600080fd5b6000819050919050565b610207816101f4565b811461021257600080fd5b50565b600081359050610224816101fe565b92915050565b6000602082840312156102405761023f6101ef565b5b600061024e84828501610215565b91505092915050565b600081519050919050565b600082825260208201905092915050565b6000819050602082019050919050565b61028c816101f4565b82525050565b600061029e8383610283565b60208301905092915050565b6000602082019050919050565b60006102c282610257565b6102cc8185610262565b93506102d783610273565b8060005b838110156103085781516102ef8882610292565b97506102fa836102aa565b9250506001810190506102db565b5085935050505092915050565b6000602082019050818103600083015261032f81846102b7565b905092915050565b610340816101f4565b82525050565b600060208201905061035b6000830184610337565b92915050565b7f4e487b7100000000000000000000000000000000000000000000000000000000600052603260045260246000fdfea26469706673582212203d78e2427364777f14242c4c0606409b2b1cd898ed535ca044b32bf7d448c42f64736f6c634300080f0033",
  "immutableReferences": {},
  "source": "pragma solidity 0.8.15;\n\ncontract Storage {\n uint[] public ids;\n\nfunction add (uint _id) public {\n  ids.push(_id);\n}\n\nfunction get (uint _index) external view  returns (uint arrayElement) {\n    arrayElement= ids[_index];\n    return arrayElement;\n\n}\n\n\nfunction getAll () external  view returns (uint[] memory) {\n    return ids;\n}\n\nfunction arrayLength () public view returns (uint) {\n    return ids.length;\n}\n}",
  "sourcePath": "/Users/petartodorov/Desktop/coding/solidity/Dapp30/advancedstorage/contracts/Storage.sol",
  "compiler": {
    "name": "solc",
    "version": "0.8.15+commit.e14f2714.Emscripten.clang"
  },
  "schemaVersion": "3.4.8",
  "updatedAt": "2022-08-13T17:33:49.073Z",
  "devdoc": {
    "kind": "dev",
    "methods": {},
    "version": 1
  },
  "userdoc": {
    "kind": "user",
    "methods": {},
    "version": 1
  }
}